:0200000470107A
:100400000000203489371070AD361070AF36107090
:10041000B1361070B3361070B5361070B736107034
:10042000000000000000000000000000B93610705D
:10043000BB3610700000000045081070E90710700E
:10044000E537107000000000E5371070E5371070D8
:10045000E5371070E5371070E5371070E53710702C
:10046000E537107000000000E5371070E5371070B8
:10047000E5371070E5371070E537107000000000A8
:10048000E537107000000000E5371070E537107098
:10049000E5371070E5371070E5371070E5371070EC
:1004A000E5371070E5371070E5371070E5371070DC
:1004B000E5371070E5371070E5371070E5371070CC
:1004C000E5371070E5371070E5371070E5371070BC
:1004D0000000000000000000E5371070E5371070E4
:1004E000E537107000000000000000000000000070
:1004F0000000000000000000E5371070CB361070DF
:10050000BD36107000000000000000000000000078
:10051000E537107081C31070E5371070E537107043
:10052000E5371070E5371070E5371070E53710705B
:10053000E5371070E5371070E5371070E53710704B
:10054000E5371070E5371070E5371070E53710703B
:10055000E5371070E5371070E5371070E53710702B
:1007400000000000E5371070E53710700000000071
:1007500010B5054C237833B9044B13B10448AFF3FB
:1007600000800123237010BDE0020034000000006F
:10077000A461117008B5034B1BB103490348AFF3E3
:10078000008008BD00000000E4020034A461117084
:1007900072B64FF0E0201B49C0F8081D1A480168E6
:1007A00041F00101016019481649096801604FF0E4
:1007B000E020174941614FF0070101614FF000014E
:1007C000C0F8181D4FF07F41C0F81C1D1149C0F83A
:1007D000201D7047FFF7FEBF01B510F073F810F051
:1007E000CFF8BDE80140704701B510F06BF800F09C
:1007F000A3F810F0C5F8BDE801407047FFF7FEBF51
:10080000FFF7FEBF00041070001000E020970034D6
:10081000FF340C000000FF404FF00000324A10602F
:10082000EFF3148020F0040080F3148862B64FF0D8
:1008300080504FF0E021C1F8040DBFF34F8FBFF39C
:100840006F8FFEE772B601B50FF0F8FFBDE801400B
:1008500062B62648264A4FF00003016891B1036052
:10086000EFF3098C2CE9F00F1EF0100F01D12CEDE5
:10087000108A204C4CF804EDC1F808C025680DB171
:100880008D61236072B61168F1B1016062B64F6884
:10089000184C8D6907F101074F60256003B40FF014
:1008A000A3FF03BCD1F80CC08CF30B88D1F808C0AF
:1008B0005CF804EB1EF0100F01D1BCEC108ABCE810
:1008C000F00F8CF30988704772B61168016009B99E
:1008D00062B6F9E74FF000674FF0E028C8F8047DF2
:1008E00062B6D4E770470000809600341C9700344D
:1008F0001897003424970034026922F00702A2F10D
:1009000044026FF0020313604FF0000353609360E2
:10091000D360136153619361D36113625362936235
:10092000D362136353634FF0FF339363D1634FF08C
:1009300080731364826070472249086800F10100E7
:100940000860214B1A683AB1A2F101021A601AB983
:100950001E4B4FF0010018601D490868026822B163
:100960001C4B4FF001021A6008E000F104001A4B22
:100970001A68904201D1194B18680860134B1A6825
:1009800012B914490868C8B101B51249086808B11C
:100990000FF0C6FB0D4B1A6872B10FF069FB1048DF
:1009A000016849B90F4801680F4A13680F484FF0B2
:1009B0008052994200D00260BDE80140BFF34F8FE2
:1009C00070470000989C003424970034949C0034B5
:1009D000089C0034049C00340C9C0034109C0034AF
:1009E000809600341C9700341897003404ED00E022
:1009F00090EDAD6A30B52DED108B90EDA87BB5EE86
:100A0000C06A87B08DED027B002390EDA47BF1EEF0
:100A100010FA91ED015A91ED004A91ED02FB91ED32
:100A200004EB044690ED123B90EDAACB90ED16AB93
:100A30008DED047B90EDA6BB80F8603009DCD0F82A
:100A4000C832D14898474FF0FF3007B0BDEC108B4B
:100A500030BDB8EE455B9FEDBE7BB8EE444B25EE56
:100A6000077BB4EEC47BF1EE10FA0FDD90ED1C7B3A
:100A70009FEDB92B37EE022B9FEDB97BB4EEC72B60
:100A8000F1EE10FA37FE027B80ED1C7B9FEDB67B0A
:100A900025EE075BB4EEC45BF1EE10FA10D594EDD1
:100AA0001C7B9FEDAD5B37EE457B9FEDB15BB4EEFC
:100AB000C57BF1EE10FA58BFB0EE475B84ED1C5BCE
:100AC00083EE0C8BBCEEC88BB8EE488B94F850507C
:100AD00028EE0C8B012DB7EEC66A40F0AC809FED7E
:100AE000A67B3FEE4E5B85EE07DB3FEE0E5B85EEB1
:100AF000079BB0EECD7BB4EEC76BF1EE10FAB0EE13
:100B0000C95B1FDBB4EEC56BF1EE10FA1ADB0023F4
:100B100084F8783094ED1A7BB5EEC07BF1EE10FAD4
:100B200040F33481012384F860309DED027BB4EE04
:100B3000C7ABF1EE10FA40F13C819DED047B3AEE3B
:100B400007BB28E1B4EEC56BF1EE10FA0CD589EEC7
:100B50000D5B94EDAE6AB0EEC55BB7EEC66AB4EE5F
:100B6000C65BF1EE10FAD5DAF7EECA0BB7EEC70B9B
:100B700015F0FAF8B2EE047BB7EEC00A20EE070BD0
:100B8000FCEEC87BB0EECE6BCDED017AB0EECF7B44
:100B9000B4EEC67BF1EE10FA62DCB5EEC0EBF1EE1E
:100BA00010FA62D538EE000B94ED3C7BB4EEC07BBE
:100BB000F1EE10FA03D5B0EE4BABB0EE470B94ED6F
:100BC0003A7BB4EEC07BF1EE10FA03DDB0EE4BAB36
:100BD000B0EE470B80EE0C8BBCEEC88BB8EE488BAA
:100BE000012D2CEE088B16D1B4F8E030022B3FD843
:100BF000DDED017AB8EE677B04EBC30282ED207B6A
:100C000082ED268B04EB0312013382ED2CDB82EDA7
:100C10002E9BA4F8E03094F87830012B07D0FCEE3E
:100C2000C87B17EE903A019A93423FF473AF0123C9
:100C300084F860306EE7B0EECF7BB0EECE5BB4EE02
:100C4000475BF1EE10FA35FE077BB4EEC67BF1EEA2
:100C500010FA7FF65FAF9FED4A9BB0EE49DB83E76A
:100C6000B5EEC0FBF1EE10FA9CD538EE400B9BE7D9
:100C700094ED2A7B94EDAF6A38EE477BB7EEC66AF7
:100C8000B0EEC77BB4EEC67BF1EE10FA56DB94ED06
:100C9000287B38EE477BB0EEC77BB4EEC76BF1EE36
:100CA00010FA4BDD94ED320B94ED307B39EE400BB6
:100CB0003DEE477B20EE000BA7EE070B14F0B0FBD8
:100CC00094EDB07AB7EEC77AB4EEC70BF1EE10FA36
:100CD00034D5DDED017AB8EE678B84F8785094F85E
:100CE0007830002B97D1102204F1880104F18000A4
:100CF00012F09AFA102204F1A00104F1980012F007
:100D000093FAD4E93023DDED017AB8EE677BC4E9CC
:100D10002C23D4E9322384ED247BC4E92E23D4E9A7
:100D2000342384ED2A8BC4E93023D4E9362384EDBF
:100D300034DB84ED369BC4E932236CE794F87830D9
:100D4000012B04BF002384F87830C8E7AFF300809C
:100D50009A9999999999A93F7B14AE47E17A843F72
:100D6000343333333333C33F333333333333C33F1A
:100D7000111111111111B13FCD3B7F669EA0F63FBD
:100D80000000000000000000A09A127094F860308B
:100D9000002B7FF4CAAE88EE0C7BBCEEC77BB8EEAE
:100DA000477B27EE0C7B84ED16BB84ED127B012084
:100DB0004BE69DED02BBEEE790ED1A6BB5EEC06B16
:100DC00090ED124BF1EE10FA90EDAA5BB0EE467B7F
:100DD000DFBF84EE057BBCEEC77BB8EE477B27EE1A
:100DE000057BB7EEC77B90ED3C5BB7EEC74AB4EE30
:100DF000C54BF1EE10FAC8BFB7EEC57B90ED3A5B7C
:100E0000B7EEC74AB4EEC54BF1EE10FA48BFB7EEE5
:100E1000C57BB7EEC75AD0F8743230B580ED125B9F
:100E200093ED005AD0EDAC7AB4EEC75AF1EE675AA2
:100E3000F1EE10FA4FF00001B0F8F83075FEA77A25
:100E4000013B8AB2934205D8442202FB030303F517
:100E5000907311E000EB8204D4ED445A77EEA55A6A
:100E6000F4EEC75AF1EE10FA01F10101E9DB442377
:100E700003FB020202F59073B5EEC06BF1EE10FABF
:100E8000C0F8743205DC93ED007AB7EEC77A80EDD6
:100E9000127B5A6803F1380142609A6803F1240416
:100EA0008260DA68C2601A69026100F138025D6925
:100EB0000C334561DD680C30C5601D69A3420561D6
:100EC00051F8045B42F8045BF1D1012030BD10B54C
:100ED000044690B070B10023084C40212370C4F840
:100EE000C802074B6846074A12F05AF86846D4F819
:100EF000C8329847204610B010BD00BF0003003430
:100F000000CF1270E09A1270002814BF01204FF039
:100F1000FF30704780ED000A30B50C6844604C68C3
:100F200084608C68C460C96802F12404016100F126
:100F3000380115680C32456152F8085C0C30C56008
:100F400052F8045CA242056153F8045B41F8045B6B
:100F5000EFD130BD2DE9F04F2DED068B0E46B0EEF2
:100F6000409BB0EE418B1D460446C7B0002800F000
:100F70008F819FEDCBAB80ED12AB0020CE494FF0BF
:100F80000008C4E91601C4E9A601C4E9AA01CB49D5
:100F9000DFF85C93C4F8B0124FF07E51C4F8B4127D
:100FA0004FF07C51C4E91A890FF2FC29D9E9008974
:100FB000C4E91C89C4E9A4894FF00008C4F8B81238
:100FC000BF49DFF83093C4F8BC124FF07F510023C3
:100FD000C4E9A88901274FF00008C4F8C012711EA7
:100FE000DFF8149388B20428C4E9A0890FF2C0295D
:100FF000D9E9008984F86030C4E9A289A4F8E03016
:1010000084F87830A4F8787214D905234FF48071ED
:10101000AC4A06A811F0C4FFD4F8C83206A8984715
:1010200084F85070204647B0BDEC068BBDE8F04F09
:10103000FFF7C2BE95ED007AB7EEC77AB4EEC70BE4
:10104000F1EE10FA12DDD4F8C8329F48984795EDBA
:10105000007AB7EEC77A8DED009B8DED027B9B4A3F
:101060004FF4807106A811F09BFFD5E74FF0440CB8
:101070000CFB065818ED117AB7EEC77AB4EEC71B11
:10108000F1EE10FA41D5D4F8C8329148984798ED5E
:10109000007AB7EEC77A8DED008B8DED027B8D4A1D
:1010A000DEE70CFB08F705EB070944372F4499ED01
:1010B000007AD7ED007AB4EEE77AF1EE10FA08F193
:1010C000010A00F1010021DBD4F8C83282489847B8
:1010D00097ED007AB7EEC77A8DED047BCDF808A0C6
:1010E00099ED007AB7EEC77A43468DED007B7B4AD7
:1010F0004FF4807106A811F053FFD4F8C83206A847
:101100009847012384F850308CE718461FFA80F87E
:101110004145C6D800234FF0440CB01E9FB2B942DF
:1011200039D884ED3A9B84ED3C8B0020A4F8F8601C
:1011300083B2994200F1010000F28B800027B8468B
:1011400004F1FC0A04F5907905EB070B09EB0700A5
:101150004422594612F019FBDBF8003008F101086F
:101160004AF8043B1FFA88F39E4207F14407EBD884
:10117000731E9BB2002E03F1010314BF1A46012215
:10118000C4F8749204F5B271013A6AD1012384F86B
:101190005030237046E702EB8709B842D9ED007A58
:1011A0004FEA870807F1010A1ED908F104089044A4
:1011B00098ED007AB4EEE77AF1EE10FA14D8D4F88C
:1011C000C8324748984798ED007AB7EEC77A8DED58
:1011D000047BCDF808A099ED007AB7EEC77A3B46BC
:1011E0008DED007B3F4A83E70CFB07F805EB080A0F
:1011F0009AED007AB4EEE77AF1EE10FA08F14408BD
:10120000A84408DA98ED007AB4EEE77AF1EE10FA25
:1012100003F1010382D8D4F8C8323348984798EDD7
:10122000007AB7EEC77A8DED047B9AED007AB7EEBF
:10123000C77A8DED027B99ED007AB7EEC77A3B460F
:101240008DED007B4FF48071284A06A811F0A8FEAE
:1012500053E702EB83073F6804EB8303C3F8107185
:1012600066E7D4F8743291ED006A93ED007AB7EE38
:10127000C66AB7EEC77A36EE4A6B37EE4A7BB4EEF3
:10128000C76BF1EE10FA48BFC4F8741244317BE723
:101290004FF0FF3047B0BDEC068BBDE8F08F00BFCC
:1012A000000000000088B3409A9999999999B93F34
:1012B0000000000000A06E400000F03F0000484227
:1012C00000002F43F09A1270349B1270BB9B127077
:1012D000199C1270A19C1270FE9C1270629D12707B
:1012E000BA9D1270299E1270939E1270EA9E12701F
:1012F0000000F0BF000008400000244030B5054663
:1013000014468DB052B9D0F8C8321D489847D5F868
:10131000C8321C48984720460DB030BD93ED042BD1
:1013200093ED021B93ED000B0AAA08A906A800F092
:101330002FF8DDE90823CDE90223DDE90A23CDE911
:101340000423012398420446CDE90033DFD16946E6
:101350002846FFF74DFB0128044603D0D5F8C832D4
:101360000948D7E795F86030012BD4D12846FFF71C
:1013700023FD01280446CED0D5F8C8320348C9E77A
:10138000709F1270D19F1270FA9F12702EA012706F
:10139000B5EEC00BF1EE10FA1FB509D4B5EEC01BC7
:1013A000F1EE10FA04D4B5EEC02BF1EE10FA0DD523
:1013B0008DED022B8DED001B53EC102B444811F0EA
:1013C000CBFC4FF0FF3005B05DF804FB9FED327BA6
:1013D000B4EEC70BF1EE10FA09DCB4EEC71BF1EE68
:1013E00010FA04DCB4EEC72BF1EE10FA07DD8DED38
:1013F000022B8DED001B53EC102B3648DFE728B194
:1014000089B1B2B93449354B084607E071B1334967
:101410003148002A304A314B18BF13460246304843
:1014200011F09AFCCDE72C492C48F2E72B490846ED
:10143000EFE79FED1B7B9FED1C6B21EE077BB3EE6F
:10144000005BA0EE067B9FED1A6BA2EE057BA7EE7C
:10145000065B9FED197B80ED005B27EE417BBBEEC9
:101460000A5BA0EE057B9FED165BA2EE057B27EEE7
:10147000067B81ED007B9FED147B27EE411BB2EED6
:10148000047BA0EE051BA2EE471B21EE061B0120EC
:1014900082ED001B97E700BF0000000000E06F40F6
:1014A0000000000000A063400000000000804740F2
:1014B000000000000000703F000000000080554068
:1014C0000000000000005C40000000000080594067
:1014D00063A01270A1A01270D0671170CE67117056
:1014E000E1A012700000000010B5044690B060B199
:1014F0000023074C40212370A065064B6846064A2E
:1015000011F04EFD6846A36D9847204610B010BDFF
:10151000D005003406CF12702BA11270002814BF22
:1015200001204FF0FF30704738220A23C0E904231E
:1015300064232D227821C0E9063240F2DC5230B516
:10154000C0E9081241F2707442F6E062C0E90A4252
:101550000BA5D5E9004505224FF0000C026548F2C5
:10156000E802C0E910C20122C0E90C4506A5D5E990
:101570000045C0E91223C0E90E4530BDAFF300803D
:1015800000000040E17A943F000000E04D62703FAF
:1015900010B5044620B1FFF7C7FF0120207010BD31
:1015A0004FF0FF30FBE72DE9F0410E4604460028DE
:1015B00000F0E180017801290BD102210170A56CB6
:1015C000C4E90126B54208D2616C914205D9A560F3
:1015D0004CE00229F3D0002049E0D4F810C0B6EE68
:1015E000005B07EE90CAB8EE676A07EE903AB8EE75
:1015F000E77BB7EEC66A37EE057B86EE070B216DFB
:10160000B7EEC00B8B424BD2F0EE007AB4EEE70A95
:10161000F1EE10FA44D4616CB7EE007A8A4220D21F
:10162000012A134638BF012307EE903AF8EEE77A15
:1016300067EE807AFDEEE77A17EE903A8B42C1BFF3
:1016400007EE901AB8EEE76A07EE902AF8EE676A9E
:10165000C3BFC6EE267A0B4680EE270AB0EE470AD5
:101660006360B4EEC70AF1EE10FA02DC0120BDE8B7
:10167000F081B7EEC00A13F09FFEB3EE047B20EEBC
:10168000070B9FED3F7B20EE070BBDEEC00B10EE6E
:10169000103AE26C33449342D4BFA360A260E5E702
:1016A000ACEB0307E16987EAE770A0EBE7708842DB
:1016B00047D8606AD4F814E0A1690EEB0C0898458D
:1016C00007FB01F143D207EE900A9FED2F7AF8EE67
:1016D000E77A67EE877A07EE101AF1EE676AB8EEDE
:1016E000C77AB4EEE67AF1EE10FA04D5FDEEE77AA9
:1016F00017EE903A59420029B8D0B54232D1606C09
:10170000904201D800292DDA02FB077707EE902AD4
:1017100006EE907A0029B8EEE77BB8EEE66B1EDAAB
:1017200094ED0E5BA5EE067BBDEEC77B17EE102A8F
:10173000236C9A42B8BF1A468242D4BF626060608E
:1017400094E7216A88422CBFE06AA06AB2E7ACEB5A
:101750000E0C9C458ADD8142A8BF0146CBE794ED83
:101760000C5BDFE70E44B5423FF731AFE56CB542A5
:10177000A8BF35462BE74FF0FF3078E7AFF3008086
:101780000000000000408F409A99593F034613F82B
:10179000012B002AFBD1181A0138704781F0004153
:1017A00002E000BF83F0004330B54FEA41044FEA46
:1017B000430594EA050F08BF90EA020F1FBF54EAE1
:1017C000000C55EA020C7FEA645C7FEA655C00F07D
:1017D000E2804FEA5454D4EB5555B8BF6D420CDD4E
:1017E0002C4480EA020281EA030382EA000083EAD1
:1017F000010180EA020281EA0303362D88BF30BD71
:1018000011F0004F4FEA01314FF4801C4CEA1131C6
:1018100002D0404261EB410113F0004F4FEA033325
:101820004CEA133302D0524263EB430394EA050FB0
:1018300000F0A780A4F10104D5F1200E0DDB02FA1F
:101840000EFC22FA05F2801841F1000103FA0EF2B3
:10185000801843FA05F359410EE0A5F120050EF179
:10186000200E012A03FA0EFC28BF4CF0020C43FAAA
:1018700005F3C01851EBE37101F0004507D54FF0B7
:10188000000EDCF1000C7EEB00006EEB0101B1F507
:10189000801F1BD3B1F5001F0CD349085FEA30004D
:1018A0004FEA3C0C04F101044FEA445212F5800F58
:1018B00080F09A80BCF1004F08BF5FEA500C50F1F5
:1018C000000041EB045141EA050130BD5FEA4C0CD8
:1018D000404141EB0101013C28BFB1F5801FE9D235
:1018E00091F0000F04BF01460020B1FA81F308BF58
:1018F0002033A3F10B03B3F120020CDA0C3208DD24
:1019000002F1140CC2F10C0201FA0CF021FA02F1FE
:101910000CE002F11402D8BFC2F1200C01FA02F16E
:1019200020FA0CFCDCBF41EA0C019040E41AA2BF93
:1019300001EB0451294330BD6FEA04041F3C1CDA5B
:101940000C340EDC04F11404C4F1200220FA04F07B
:1019500001FA02F340EA030021FA04F345EA030125
:1019600030BDC4F10C04C4F1200220FA02F001FAE7
:1019700004F340EA0300294630BD21FA04F0294669
:1019800030BD94F0000F83F4801306BF81F4801102
:101990000134013D4EE77FEA645C18BF7FEA655C75
:1019A00029D094EA050F08BF90EA020F05D054EA47
:1019B000000C04BF1946104630BD91EA030F1EBF4C
:1019C0000021002030BD5FEA545C05D14000494150
:1019D00028BF41F0004130BD14F580043CBF01F543
:1019E000801130BD01F0004545F0FE4141F4700129
:1019F0004FF0000030BD7FEA645C1ABF1946104604
:101A00007FEA655C1CBF0B46024650EA013406BF04
:101A100052EA033591EA030F41F4002130BD00BFC3
:101A200090F0000F04BF0021704730B54FF4806480
:101A300004F132044FF000054FF0000150E700BF01
:101A400090F0000F04BF0021704730B54FF4806460
:101A500004F1320410F0004548BF40424FF000014D
:101A60003EE700BF42004FEAE2014FEA31014FEA90
:101A700002701FBF12F07F4393F07F4F81F06051DF
:101A8000704732F07F4208BF704793F07F4F04BF2A
:101A900041F40021704730B54FF4607401F0004507
:101AA00021F000411CE700BF50EA010208BF704767
:101AB00030B54FF000050AE050EA010208BF704758
:101AC00030B511F0004502D5404261EB41014FF4C1
:101AD000806404F132045FEA915C3FF4D8AE4FF0C9
:101AE00003025FEADC0C18BF03325FEADC0C18BFAC
:101AF000033202EBDC02C2F1200300FA03FC20FAFD
:101B000002F001FA03FE40EA0E0021FA02F1144449
:101B1000BDE600BF7BB972B90029BEBF00204FF0FF
:101B2000004106E008BF00281CBF6FF000414FF0E5
:101B3000FF3000F0C9B9ADF1080C6DE904CE002901
:101B400009DB002B1ADB00F04DF8DDF804E0DDE9DD
:101B5000022304B07047404261EB4101002B1BDBC4
:101B600000F040F8DDF804E0DDE9022304B0404273
:101B700061EB4101524263EB43037047524263EB16
:101B8000430300F02FF8DDF804E0DDE9022304B0A0
:101B9000404261EB41017047524263EB430300F066
:101BA00021F8DDF804E0DDE9022304B0524263EBE2
:101BB0004303704753B94AB9002908BF00281CBF26
:101BC0004FF0FF314FF0FF3000F07EB9ADF1080C5F
:101BD0006DE904CE00F006F8DDF804E0DDE902234B
:101BE00004B070472DE9F04F099D0C46002B4DD1F4
:101BF0008A420F4684469646B2FA82F360D94BB1C8
:101C000002FA03FEC3F120029F4000FA03FC20FA0F
:101C100002F217434FEA1E461FFA8EF44FEA1C42A7
:101C2000B7FBF6F106FB117701FB04F042EA07422D
:101C3000904208D91EEB020201F1FF3702D2904216
:101C400000F22D813946121A1FFA8CFCB2FBF6F015
:101C500006FB102200FB04F44CEA024C644508D950
:101C60001EEB0C0C00F1FF3202D2644500F21A8127
:101C7000104640EA0140ACEB040C002125B12CFADF
:101C800003F30022C5E90032BDE8F08F8B4205D98D
:101C90000DB1C5E9000100210846F5E7B3FA83F16B
:101CA00000294DD1A342C0F0F280904280F0EF8035
:101CB000064623460846002DE6D0C5E90063E3E763
:101CC000002B40F0A2808A1A4FEA1E471FFA8EF6B8
:101CD0000121B2FBF7F407FB14204FEA1C4242EA51
:101CE000004206FB04F090420FD91EEB020204F101
:101CF000FF382CBF4FF001094FF00009904203D983
:101D0000B9F1000F00F0C8804446121A1FFA8CFC8B
:101D1000B2FBF7F007FB102200FB06F64CEA024C80
:101D2000664508D91EEB0C0C00F1FF3202D2664565
:101D300000F2BB801046ACEB060C40EA04409DE785
:101D4000C1F120068B4004FA01FE22FA06F720FAC0
:101D500006FCF4408A401F434EEA0C0300FA01FEE1
:101D60004FEA17484FEA13491FFA87FCB4FBF8F013
:101D700008FB104449EA044400FB0CF9A1450ED9C4
:101D80003C1900F1FF3A2CBF4FF0010B4FF0000B54
:101D9000A14503D9BBF1000F00F093805046A4EB9E
:101DA00009041FFA83F9B4FBF8F308FB134403FB9F
:101DB0000CFC49EA0444A44506D93C1903F1FF3858
:101DC00001D2A4457AD8434643EA0040A4EB0C0470
:101DD000A0FB02984445CC46434602D306D1CE45EB
:101DE00004D20138B9EB020C68EB07035DB1BEEB1E
:101DF0000C0264EB030404FA06F622FA01F3CC4069
:101E00001E43C5E9006400213EE702FA03FEC3F168
:101E1000200104FA03F200FA03FCCC404FEA1E470B
:101E200020FA01F11FFA8EF6B4FBF7F00A4307FB24
:101E30001044110C41EA044100FB06F48C420ED917
:101E40001EEB010100F1FF382CBF4FF001094FF0EC
:101E500000098C4202D9B9F1000F2CD04046091B71
:101E600092B2B1FBF7F407FB141142EA014204FB02
:101E700006F1914207D91EEB020204F1FF3801D2AC
:101E8000914215D84446521A44EA004121E7861A85
:101E900064EB030301200EE7023C724435E702398C
:101EA0007244D0E6F4440238E3E6F444023842E7F0
:101EB000023C7244E7E702387144D0E7023B3C44FD
:101EC00082E702383C446AE7704700BF08B5044C1B
:101ED0004FF0FF3120460EF0B1FB00F0F5FBF7E7C5
:101EE000087A00342DE9F04F91B006A800F0F4FD17
:101EF000DFF89490DFF894A0A9F12008504600F094
:101F000008FB00270446049701F0CCFB06AB012137
:101F100004AA009003A8039400F0F8FD01F0C2FBAE
:101F20004FF0FF31019048460EF0B8FA059B4FF094
:101F3000180BBB4203F10106B8BF0126DDF810E023
:101F4000DFF84CC0C8F85430013E0FD1DDE9002362
:101F500048469B1AC8F850310EF0D2FA504600F0AD
:101F6000D6FA012140460EF0E7FAC7E70BFB07E57A
:101F70000CF1180C0CF140040FCD0FC4013795E89B
:101F8000030084E80300DFE7D03500341007003495
:101F9000B03500342DE9F74F0EF03CFED0E90232A7
:101FA000D31A01930EF03AFED0E90235ED1A01F092
:101FB00079FB00210446304800F08EFA002100F041
:101FC00073FBDFF8B4B0DFF8C4A001F06BFB06468A
:101FD000041B584600F09DFA01218146504600F04E
:101FE0007BFA804601F05EFB49460746019A0020D5
:101FF0000EF08CFD002D20DD08F01F0CAC44BFF36B
:102000004F8F6FEA080208EB0C0E7244ACF1200C03
:1020100052091CF1200F02F1010ED8BF4FF0010E42
:1020200041464EF001E01548C0F85C1220310FF037
:1020300005C8BFF34F8FBFF36F8F2A46414600207C
:102040000EF07EFD0E4809F0B5FD01F02BFBC71B1D
:10205000584600F05CFA504600F071FA4FF0FF313C
:1020600008480EF01BFA0848C0E9524720300EF02D
:1020700047FA3446A9E700BF6035003400ED00E0C0
:1020800000000034D0350034B0350034100700347F
:1020900008B50021054800F01FFA30B100F009FB37
:1020A000BDE80840014800F04ABA08BD6035003478
:1020B00008B500F0A1FC00F091FCBDE8084000F07C
:1020C000E8BA000001480EF0D9BA00BF087A00341F
:1020D0000368002BBCBF002303600B68002BBCBF50
:1020E00000230B600368B3F5487FA4BF40F21F33A1
:1020F00003600B68B3F5F07FA4BF40F2DF130B6001
:1021000070470000000000002DE9F04F2DED028B1C
:102110007D4EC9B006F1200700244FF0FF317A4808
:102120000EF08CFA4FF0FF3138460EF0B7F94FF44D
:102130008272764907A811F028FBD6E95259384631
:10214000D6F854800EF0DCF901F0ACFA00F082FC15
:102150004FF4F0734FF448722146204600940EF07D
:10216000B7FF6B4800F004FB2346214602AA6848EB
:1021700000F03AFB0EF0C0FD02222146654B2046DE
:1021800001F0C4F80EF0B8FD9DED027AB7EEC77A03
:10219000C18802228DED007B5F4B204601F0B6F82E
:1021A0000EF0AAFDC18802225C4B01EB41012046E2
:1021B00001F0ACF80EF0A0FD0222C188584B91400E
:1021C0002046CDF8009001F0A1F80EF095FDC188F1
:1021D000062002224143534B204601F097F80EF0AF
:1021E0008BFD07EE905A9FED465BB8EE677B85EE60
:1021F000076BC18802228DED006B4B4BC1EBC10117
:10220000204601F083F80EF077FDC1880222474B8B
:1022100001EBC101204601F079F80EF06DFDC18897
:102220000A2002224143424B2046CDF8008001F0B3
:102230006DF89FED408ADFED408ADFF8009107AD31
:10224000444504DB00F01CFC01F02CFA64E7D5EDFA
:10225000017A67EE887AFDEEE77A17EE900AD5EDFF
:10226000027A67EEA87AFDEEE77A17EE901AD5EDBE
:10227000047A67EEA87AFDEEE77A17EE903AD5ED8C
:10228000037A67EE887AFDEEE77A17EE902A01323C
:1022900002EBD2720133521003EBD37352425B1044
:1022A0005B4200EB020CCDF80CC0801A01EB030C72
:1022B000C91A0590069103A804A9CDF810C0FFF72C
:1022C00007FF06A905A8FFF703FFDDE903AB0B68CD
:1022D0004FF0FF210268A3EB0B0350460091A2EBE5
:1022E0000A0259460EF0D2FE55F8183F032259460D
:1022F000504659F8233001F009F80134A0E700BF37
:102300000000000000408F40B03500340436003437
:1023100030060034C8631170D1631170D863117036
:10232000E2631170E7631170EB631170F063117079
:10233000F8631170000048440000F04338641170E5
:102340002DE9F0413D4C8CB000F0C2FA94E8030056
:1023500008AA82E803000221394800F0A1F8D4E974
:1023600002010AAA82E803000221364800F098F828
:10237000354800F0EFF90022344B3549354800F07C
:1023800023F900222023114633480EF0E9F80022F9
:10239000324C1146202320460EF0E2F8342301226D
:1023A000002104F120000EF003F800F017FB0021DB
:1023B00000F06AF90A251D230126C0274FF4805436
:1023C0004FF01E08CDE903350293254BCDE9056793
:1023D0000093244A00232449019424480EF05AF91A
:1023E000234BCDE905670093CDE902880023214AFC
:1023F00021490495019421480EF04CF9204BCDE978
:1024000005670093CDE903850023CDE901481D4A06
:102410001D491E480EF03EF91C23CDE902331C4B2A
:10242000CDE9056700931B4A00231B4904950194DD
:102430001A480EF02FF90CB0BDE8F081C0611170A0
:1024400060350034100700343006003491201070DD
:10245000B1201070C5201070087A0034B0350034F7
:1024600048690034951F1070FB631170487900347F
:1024700088580034E51E10700564117088680034B7
:10248000C8470034092110700F641170C857003418
:1024900008370034CD1E10701964117008470034DD
:1024A00070B520230D4616460A46002104460EF05C
:1024B00057F820230022E01811460EF051F884F856
:1024C00040502DB13368012D63641CBF7368A36451
:1024D0000023A4F84C3070BD003918BF012110B59D
:1024E000494204460EF0AAF80D280ED094F84C305C
:1024F00004EB8302506C94F840200133B3FBF2F1FB
:1025000002FB113384F84C3010BD0020FCE70EF0C4
:10251000B5B810B504464FF0FF3120300EF08EF8FC
:1025200094F84D3004EB8302506C94F84020013352
:10253000B3FBF2F102FB113384F84D3010BD2030B3
:102540000EF09CB807EE901AF8EE676A07EE902A34
:102550009FED1B6AB8EE677ADFED1A5A86EE865A4F
:10256000C7EE257AB4EE675AF1EE10FA48BFF0EEE6
:10257000457A27EE866A67EEA57AF4EEC66AF1EE32
:1025800010FAB4EEE77ACCBFFCEEC66AFCEEE66A5F
:10259000F1EE10FA16EE903ACCBFBCEEE77ABCEE44
:1025A000C77A0131C91A17EE103A0132D21A490816
:1025B0005208C0ED006A80ED017A8160C260704708
:1025C000000048440000F0432DE9F04F4FF00208AE
:1025D00093B007460E4615460021142201A81C465A
:1025E00010F03CFE01A8CDF818800AF03DFADDE9B4
:1025F00001AB1C2200210BA810F030FE4FF44872F2
:102600004FF4F0734FF00109CDE9072303235A4635
:1026100051460EA80D93CDE90998FFF793FF6A463E
:1026200007A948460AF0DAF8DDE901BA24220021B8
:102630000DEB020010F012FEE02203235946CDE913
:1026400007220EA85246CDE90A390D93FFF77AFF0B
:102650006A46404607A90AF0C1F80FB1064B1F6051
:102660000EB1064B1E600DB1054B1D600CB1054B44
:102670001C6013B0BDE8F08F347A0034307A003437
:102680002C7A0034287A00340A46014601200AF0E8
:1026900067B910B504460AF09DF82346BDE810401E
:1026A0000022012103F000BA0A46014602200AF086
:1026B00057B910B504460AF08DF82346BDE810401E
:1026C0000022022103F0F0B90AF02ABA00B5E5B001
:1026D0004FF4C8720021684610F0C0FD1822002394
:1026E000CDE900234FF400134FF0805132930323C0
:1026F000CDE9221328236846259304F035FF0038DE
:1027000018BF012065B05DF804FB0000012808B582
:1027100005D1054B1B6803B19847002008BD02286E
:10272000FBD1024BF6E700BF347A00342C7A003438
:10273000012808B505D1054B1B6803B19847002057
:1027400008BD0228FBD1024BF6E700BF307A003407
:10275000287A0034054A0021D2F8FC3043F0807317
:10276000C2F8FC30E02210F079BD00BF00ED00E0BF
:1027700070B5044600F1380500F120060FCE0FC5F4
:1027800096E8030086B085E8030068460EF046F937
:1027900002A80EF04DF904A80EF054F9DDE900107E
:1027A000029B049D039ACB1840EB02025B19059D26
:1027B000C4E90A1042EB0502C4E9083200F072FFD6
:1027C000A36C226E20639B1AB3F57A7F04F1380163
:1027D00007D3902204F1500006B0BDE8704010F01D
:1027E00023BD06B070BD0000F8B504462DED028B88
:1027F00016461D460F46F9B1D4E91023D0E90A0167
:10280000801A61EB0301FFF74FF9D4E90E239FED26
:102810002E7B41EC180BD4E90801801A61EB03010F
:1028200028EE078BFFF740F941EC160B88EE067B8C
:10283000B7EEC77B87ED007AFEB1D4E91C32D4E94C
:102840001601C01A61EB0201FFF72EF9D4E91A3222
:102850009FED1D7B41EC180BD4E91401C01A61EB0C
:10286000020128EE078BFFF71FF941EC160B88EEEB
:10287000067BB7EEC77B86ED007AFDB1D4E9343232
:10288000D4E91601C01A61EB0201FFF70DF9D4E992
:1028900032329FED0D7B41EC180BD4E91401C01AC4
:1028A00061EB020128EE078BFFF7FEF841EC160BF7
:1028B00088EE067BB7EEC77B85ED007ABDEC028B18
:1028C000F8BD00BFAFF300800000000000005940D9
:1028D000F0B5374D87B018220021684610F0BEFCD5
:1028E00000212846334A10F0B9FCBFF34F8FDFF8C0
:1028F000E8E000234EF001E02F4AE918C2F8701218
:1029000020330FF007C0BFF34F8FBFF36F8F2B4CF7
:10291000002120462A4A10F0A1FCBFF34F8F4BF64E
:10292000803E00234EF001E0234AE118C2F8701205
:1029300020330FF007C0BFF34F8FBFF36F8F01F04D
:10294000FFF9642001F03CFA4FF4F07602230024F2
:102950004FF44877CDE903631A4B1B4A1B7869464D
:1029600002FB03552046009402940197059501F05F
:10297000EFF904230493154B694601200593CDE933
:1029800001740094039601F0E3F911480EF04EF93A
:1029900001200EF07BF920460EF0DAFB0D480EF018
:1029A000A3F94FF0FF300EF097F907B0F0BD00BF6C
:1029B00000081C910028230000ED00E0009804911D
:1029C000007017003000003400B80B000050109168
:1029D000406511700001003440190100034B0448A8
:1029E0001A78044B00FB0230704700BF397A00347C
:1029F00000B80B0000081C91032310B5114C22787D
:102A00000132B2FBF3F101EB4101521A0E4922707F
:102A10000A780132B2FBF3F303EB4303D21A0A70D4
:102A200001F0D8F92178094B094C002204FB01314F
:102A300004F071FB01F0CEF9BDE810400022022144
:102A400004F04DBB30000034397A003400081C918A
:102A500000B80B0010B572B601F0BCF9054B064C7E
:102A60001978064B012204FB013104F054FB62B6D5
:102A700010BD00BF387A003400B80B0000980491F4
:102A800010B5114C11492278114B01FB0233BFF3F1
:102A90004F8F45F6C05E4EF001E00E4AC2F8683234
:102AA00020330FF005C8BFF34F8FBFF36F8F72B69F
:102AB00001F090F90122022104F011FB62B62378A3
:102AC000C3F10103237010BD387A003400B80B0045
:102AD0000098049100ED00E0094A05218261094A4D
:102AE000C2610122C0E900210722C0E9022231228D
:102AF0000261054A02620A2242610CF053BA00BF29
:102B00009A99193F9A99993E0C65117013B50C4624
:102B1000012C11461A4605D0C421064B064A074827
:102B20000FF08AF9036801A801930CF03FFA02B094
:102B300010BD00BF6C641170F66411707A6411707E
:102B4000044B82B0C3F85C0AD3F85C320193019B5A
:102B500002B07047008002562DE9F04F99B001F0A5
:102B6000A3F91422002113A810F078FB0820FFF726
:102B7000E7FF1020FFF7E4FF0220FFF7E1FF8020CE
:102B8000FFF7DEFF4FF40040FFF7DAFF4FF480401D
:102B9000FFF7D6FF4020FFF7D3FF2020FFF7D0FF3D
:102BA0004FF40050FFF7CCFF0120012503244FF420
:102BB00080664FF00208FFF7C3FF02464FF48061C2
:102BC000454803F0B5FB00225021444803F0B0FB18
:102BD00000220821424803F0ABFB01224FF4806140
:102BE0003E4803F0A5FB3C4813A9CDE91365CDE9A8
:102BF000158403F0FDF950230827384813A9CDE9BF
:102C00001335CDE9155403F0F3F9354813A9CDE98F
:102C10001375CDE9155403F0EBF913A92F48CDE94D
:102C20001365CDE9158403F0E3F94FF4E133DFF8E0
:102C3000CC902C4A4846C9E9002300230C22C9E95C
:102C40000233C9E90523C9E90733C9E90933C9F8DA
:102C5000103008F054FA014608B172B6FEE7484653
:102C600008F0BBFA014608B172B6FEE7484608F024
:102C7000D4FA08B172B6FEE7484608F093FA08B1F4
:102C800072B6FEE7DFF878B0174B5846CBF8003045
:102C900004F0D6FA08B172B6FEE7DFF868A0134B6D
:102CA0005046CAF8003004F0CBFA08B172B6FEE71D
:102CB000DFF854900E4B4846C9F8003004F0C0FAD3
:102CC00008B172B6FEE70B4A0B4B1046136004F0D6
:102CD000B7FAD8B172B6FEE70010025600180256D5
:102CE00000000256001000520031025280310252A0
:102CF00000320252948B003480320252008B003436
:102D0000B88B0034AC8B0034A08B00340190584653
:102D100004F0B3FA50464FF4007A04F0AEFA484695
:102D2000DFF83C9304F0A9FABD4804F0A6FAC9F80C
:102D300058AAD9F8582213A903920920039ACDE979
:102D4000138407F013FF384613A907F00FFF13A9E8
:102D50000A2007F00BFF13A90B2007F007FF2846F6
:102D600013A907F003FF2146AE4807F015FF2146DF
:102D7000AD4807F011FF2146AC4807F00DFF214692
:102D8000AB4807F009FF2146AA4807F005FF214696
:102D9000A94807F001FF2846202104F0E9F9394647
:102DA00040F20132A54803F0C8FA40F20132102186
:102DB000A34803F0C2FA40F201324FF48041A04828
:102DC00003F0BBFA40F2013220219E4803F0B5FA2D
:102DD00040F2013240219B4803F0AFFA314640F205
:102DE0000132984803F0A9FA40F2013210219648C6
:102DF00003F0A3FA40F201324021934803F09DFA18
:102E0000314640F20132904803F097FA294640F2E9
:102E100001328E4803F091FA414640F201328B486C
:102E200003F08BFA40F201320421884803F085FA5E
:102E3000394640F20132854803F07FFA40F2013210
:102E40001021824803F079FA40F2013220217F48B4
:102E500003F073FA40F2013240217C4803F06DFA2E
:102E600040F201324FF48071784803F066FA51461F
:102E700040F20132754803F060FA314640F2013207
:102E8000724803F05AFA40F201324FF400616F4881
:102E900003F053FA294640F201326D4803F04DFA2F
:102EA00040F2013204216A4803F047FA40F201324D
:102EB0001021674803F041FA40F2013220216448B2
:102EC00003F03BFA294640F20132624803F035FA3A
:102ED000414640F201325F4803F02FFA40F20132DE
:102EE00004215C4803F029FA394640F2013259487E
:102EF00003F023FA40F201321021564803F01DFA84
:102F000040F201322021534803F017FA40F2013217
:102F10004021504803F011FA40F2013280214D481F
:102F200003F00BFA21464C4807F036FE019B184689
:102F300000F054FF4FF00043C9F8603AD9F860221E
:102F40000492049A454AC9F8203AC2F82032C9F8D6
:102F5000586AD9F858320593059BC9F8186AC2F81F
:102F6000186208F0CFF908F0D7F94FF0FF33C9F82D
:102F7000843AD9F884221392139AC9F88C3AD9F872
:102F80008C221292129AC9F8903AD9F89022119292
:102F9000119AC9F8943AD9F894221092109AC9F863
:102FA000983AD9F898220F920F9AC9F89C3AD9F812
:102FB0009C220E920E9AC9F8A03AD9F8A0220D923E
:102FC0000D9AC9F8A43AD9F8A4220C920C9AC9F81F
:102FD000A83AD9F8A8220B920B9AC9F8AC3AD9F8BA
:102FE000AC220A920A9AC9F8B43AD9F8B4220992E2
:102FF000099AC9F8B83AD9F8B8220892089AC9F8D3
:10300000BC3AD9F8BC220792079AC9F8883AD9F88D
:1030100088320693069B19B0BDE8F04FFFF790B9D0
:10302000948B00341D0000200500003006000030A5
:1030300007000030080000300A000030000002568F
:10304000000C0256001002560018025600340256B8
:1030500000380256003C02561C0000200090025628
:103060000080025608B52D4B1A6842F400521A60CF
:103070001A6842F480521A60A3F573435A6912F435
:10308000003211D1BFF34F8FBFF36F8FC3F85022BF
:10309000BFF34F8FBFF36F8F5A6942F400325A610A
:1030A000BFF34F8FBFF36F8F1D4A536913F4803303
:1030B00028D1C2F88430BFF34F8F43F6E074D2F8C2
:1030C0008030C3F3C900C3F34E335B0100F1010E3E
:1030D00001464EF001E003EA040646EA8175C2F8B3
:1030E000605201390FF007C8203B13F1200FEDD1DA
:1030F000BFF34F8F536943F480335361BFF34F8F56
:10310000BFF36F8F00F0D0FE00F0E8FF0CF0D0F8B6
:103110000CF0A8F800F0C8FEFEE700BF00E001E0F8
:1031200000ED00E008B54FF440330748074A02219C
:10313000C0E900230023C0E9021302F026FE08B113
:1031400072B6FEE708BD00BFC08C00340010025804
:1031500010B5114A114C124B2046C4E9002300233C
:103160000122C4E90433C4E90232C4E9063323620C
:1031700003F035FA014608B172B6FEE7204603F0C7
:1031800055FC014608B172B6FEE7204603F074FC18
:1031900008B172B6FEE710BD005800506C8C0034C8
:1031A000FFEDC0302DE9F0439BB03422002168468A
:1031B00010F054F8342200210DEB020010F04EF80C
:1031C0000023314C314A2F21C4E9002302228720F9
:1031D000C4E90512222240F2A735C4E9070240F2F1
:1031E000022240F2CF36C4E9095240F20F222046B3
:1031F000C4E90B62C4E902332361A38684F8363044
:1032000003F0DAFE024608B172B6FEE74FF44876E4
:103210004FF0FF094FF4F07504234FF4C0680727FF
:10322000CDE90160CDE90590CDE909060090ADF842
:1032300030008DF8320069462046CDE90353CDE9D0
:1032400007870B9503F012FF08B172B6FEE708235B
:10325000CDE90D06CDE90F05CDE91308CDE91570CF
:10326000ADF864008DF86600012220460DA9CDE975
:103270001139CDE9176503F0F9FE08B172B6FEE722
:103280001BB0BDE8F08300BFC48B003400100058B1
:103290000123C02200B589B00A21CDE905321F23E0
:1032A000CDE9033102934FF480530193064B074A53
:1032B00000930749002307480DF0ECF908B172B6F6
:1032C000FEE709B05DF804FB3A7A0034592B107020
:1032D00034651170408A003472B6FEE7C0B26DEDFD
:1032E00081CF11B140B1012809D09FEC100A9FE8AD
:1032F0000F90FDEC81CF7447024B1960F5E7024B4C
:10330000FBE700BF2C8D0034288D003408B4F3B5E2
:1033100004460D46164607AB094F53F8042B3021DF
:10332000384601930FF0DEFE33463A4629462046E2
:103330000DF062FE02B0BDE8F04001B0704700BF82
:10334000308D0034044B82B0C3F84C0AD3F84C32B1
:103350000193019B02B0704700800256044B82B07B
:10336000C3F85C0AD3F85C320193019B02B070474A
:1033700000800256044B82B0C3F8600AD3F8603272
:103380000193019B02B070470080025608B503F01C
:103390003FFF0121084603F00BFF03F041FF01212D
:1033A000022003F005FF03F043FFBDE808400021C1
:1033B000032003F0FDBE00000268034B9A4202D1D5
:1033C0000220FFF7D7BF70470010025810B504461F
:1033D000EAB01422002101A80FF040FF4FF4C87298
:1033E000002106A80FF03AFF2268174B9A4228D115
:1033F00000234FF40052CDE90623144B06A8419355
:1034000004F0B2F808B1FFF767FF0820FFF7A6FF46
:1034100044F2100212230021CDE901230323CDE958
:10342000031304230A480DEB0301059302F0E0FDAA
:103430004FF48002074BC3F8642AD3F86432009338
:10344000009B6AB010BD00BF005800500C0400077C
:10345000000C02560080025608B50268094B9A42D9
:103460000FD14FF48002084B10210848C3F86422A2
:1034700002F0AEFEBDE808404FF48041034802F080
:10348000A7BE08BD0058005000900256000C02561E
:10349000F0B50446EBB01422002101A80FF0DEFEC7
:1034A0004FF4C872002106A80FF0D8FE22683A4BEC
:1034B0009A426ED100234FF08072CDE906234FF07F
:1034C00000734C9318234FF000510DEB0300CDE92E
:1034D000261304F049F808B1FFF7FEFE02242F4B33
:1034E0002046C3F87C4AD3F87C3200260093009B28
:1034F000FFF734FF8020FFF731FF2020FFF72EFF7A
:103500000120FFF72BFF4020FFF728FF03250E27A0
:1035100049F63243224801A9CDE90134CDE90365DA
:10352000059702F065FD10231E4801A9CDE901347D
:10353000CDE90365059702F05BFD4FF440731A482F
:1035400001A9CDE90134CDE90365059702F050FDED
:1035500049F6A773154801A9CDE90134CDE9036502
:10356000059702F045FD4BF20623114801A9CDE96C
:103570000134CDE90365059702F03AFD0123CDE959
:1035800001340A230A4801A9CDE90365059302F035
:103590002FFD6BB0F0BD00BF001000580080025638
:1035A00000040256001C0256001402560000025687
:1035B0000018025607B54FF480520120FFF7C2FEF3
:1035C0000220FFF7BFFE0420FFF7BCFE0820FFF734
:1035D000B9FE054BC3F8542AD3F854320193019B2A
:1035E00003B05DF804FB00BF0080025610B504462E
:1035F000EAB01422002101A80FF030FE4FF4C87287
:10360000002106A80FF02AFE2268144B9A4223D10B
:103610004FF480730022CDE90623114B06A85A937C
:1036200003F0A2FF08B1FFF757FE10200D4B6022F8
:10363000C3F86C0AD3F86C3201A90093009BFFF722
:103640008DFE0223CDE901230023CDE903330723B7
:103650000548059302F0CCFC6AB010BD0010005282
:1036600030000107008002560010025608B50268BB
:10367000094B9A420ED14FF48060FFF763FE4FF082
:103680008040FFF777FE054BC3F8200A03F580530F
:10369000C3F8200208BD00BF00FC0D580080025690
:1036A000002070470CF032BD0CF05CBBFEE7FEE77B
:1036B000FEE7FEE7FEE7FEE77047704708B509F052
:1036C00089F8BDE8084001F0A4B808B509F082F80F
:1036D000BDE8084001F0D4B90120704708B510F0EA
:1036E00011F8162303604FF0FF3008BD08B510F045
:1036F00009F816230360FEE770B50D4614460E4622
:10370000731B9C4201DC204670BDAFF3008006F8BD
:10371000010BF5E770B50D4614460E46731B9C422F
:1037200001DC204670BD16F8010B00F061FBF5E7E7
:103730004FF0FF3070474FF4005300204B6070474C
:1037400001207047002070470B4A0346116810B5EE
:1037500009B90A491160106809490A4C0344091B58
:103760008B4206D90FF0CEFF0C2303604FF0FF30E1
:1037700010BD1360FCE700BF608D00348853013436
:1037800000002034000800000F4880F30A880F482A
:10379000854600F03DFB0E480E490F4A002302E02B
:1037A000D458C4500433C4188C42F9D30B4A0C4C7F
:1037B000002301E013600432A242FBD30FF0A8FF04
:1037C000FFF750FCFEE7000000F81F340000203433
:1037D00000000034D00200341CCF1270E00200342C
:1037E00088530134FEE7000008B5044B1A781AB973
:1037F00001221A70FFF7ACFC002008BD648D003474
:1038000008B5064A137833B1013BDBB2137013B924
:10381000034802F039FF002008BD00BF648D00346A
:103820006C8C00341FB54FF47A740092CDE90134EA
:103830000A4602230146044802F040FF003818BF40
:103840000120404204B010BD6C8C00341FB54FF411
:103850007A740092CDE901340A46022301460448F5
:1038600003F006F8003818BF0120404204B010BD34
:103870006C8C0034FFF716BF70B534260D4D0E4822
:10388000AC682D6806FB0400846C05FB0211C06D5A
:1038900024B950F8212000201A6070BD062C05BF05
:1038A00001EB41010A5830F8112022F07F4218BF85
:1038B00092B2F0E7688D0034C48B0034F0B5342741
:1038C0001D4C1E4EA06807FB0060D0F848C0C56DB7
:1038D000206800FB0210BCF1000F03D145F8203036
:1038E0000020F0BDBCF1060F22D15FFA83FC00EB93
:1038F0004000033D00F805C0A568206807FB05658A
:1039000000FB0210ED6D00EB4000C3F3072C023DFD
:1039100000F805C02068C3F3074300FB0212A1684A
:1039200002EB420207FB0166F16D01395354D7E700
:103930009BB225F81030D3E7688D0034C48B003477
:10394000024B00201B680B60704700BF688D00347D
:10395000024B00205B680B60704700BF688D00342D
:1039600034200F4B0F4A996000FB01210A6E1A6048
:103970004A6E5A608A6C042A0BD0082A0CD0062A98
:103980000BBF03220422012100210020C3E90312FE
:10399000704702221146F8E702220421F5E700BF32
:1039A000688D0034C48B0034024B0020DB680B6050
:1039B000704700BF688D00342DE9F3419046304ACE
:1039C0000F46D16806460229089C35D140F2031CF7
:1039D00040F20F20C4F34515C4F3C4220CFB05F5D7
:1039E000424304F01F04444321351732AD099209C4
:1039F0002D02173445EA024545EA941545F07F4407
:103A00004FF440321F4D2048C5E90213C5E90002BA
:103A1000284602F0BAF978BB3B4632462146284692
:103A2000CDF8008002F0EEF930BB3221284602B01A
:103A3000BDE8F04102F000BA042917D1C4F3033203
:103A400002EB0210C4F3032202EB0212120442EA58
:103A5000006204F00F0000EB00100243C4F30310F7
:103A600004F0F004044442EA0424C9E7012914BF25
:103A7000002144F07F44C3E702B0BDE8F08100BFFD
:103A8000688D0034C08C00340010025873B50C4DA2
:103A90000C462E69A86819462B68342502FB03449E
:103AA000084A5B1A05FB0022D06D079A06FB04004A
:103AB0000092069AFFF780FF002002B070BD00BFA1
:103AC000688D0034C48B003473B50C4D14462E69D8
:103AD000A8681A462B68342504FB03140849013BE7
:103AE00005FB0011C86D069906FB04000091012139
:103AF000FFF762FF002002B070BD00BF688D003488
:103B0000C48B003437B50C4619460B4B18681D6939
:103B100000FB024434209A68084B00FB0233D86D46
:103B2000069B05FB0400009301220023FFF744FFDE
:103B3000002003B030BD00BF688D0034C48B00345A
:103B40002DE9F34190461C4A0646D5680F46022DE2
:103B500007D02A46681E41424141042D14BF0D463C
:103B600015464FF48032154C15492046C4E9001221
:103B70000022FF21C4E91123A560E260E26421650F
:103B800002F003F9A0B90121204602F0D3F978B977
:103B900001233A46009331464346204602F032F96B
:103BA00030B93221204602B0BDE8F04102F044B9FC
:103BB00002B0BDE8F08100BF688D0034C08C0034D5
:103BC000001002582DE9F74F294E1C46F36888462D
:103BD000022B154607D01A46581E41424141042B7C
:103BE00014BF0B4613464FF0340A0D9FDFF8849044
:103BF000DFF884B02F44BD4203D1002003B0BDE8FC
:103C0000F08FB16830680AFB019105FB008C3269C6
:103C1000C96D02FB0C114243002A1DDD04F01F0098
:103C20001044BFF34F8FE24304EB000E7244203880
:103C30005209203002F1010ED8BF4FF0010EA44608
:103C40004EF001E0CBF868C20CF1200C0FF007C079
:103C5000BFF34F8FBFF36F8F20460C9A0193FFF78E
:103C60006FFF0C9B3269013502FB0344019BC2E7E5
:103C7000688D0034C48B003400ED00E04FF0340C4C
:103C80002DE9F84F1F4F9D8B3C68BE6804FB021165
:103C90001D4A3C690CFB0622D66DA5F12002072ABD
:103CA00004FB0166D3F80A00D3F812A0D3F81690EB
:103CB00017D9A5F11002082A34BF4FF0020B4FF0BC
:103CC000010B4FF00008ED080AFB05F509F1FF3282
:103CD00005FB02006D421C18C84505D10020BDE857
:103CE000F88F4FF0000BECE731465B46204652461A
:103CF000FFF726FF3B6939682C4401FB036608F196
:103D00000108E9E7688D0034C48B0034022810B53F
:103D1000044605D001280ED0042814BF0424022430
:103D2000064BC3E90304C3E90012FFF7FBF9BDE842
:103D30001040FFF737BA0324F2E700BF688D003464
:103D40004FF4F0724FF448710220FFF7DFBF00001C
:103D500070B5FF260C468EB024220021054605A82A
:103D60000FF07CFA4FF4C06E06960726A268E3684F
:103D7000206804939B1A61680C932369CDE908E6D7
:103D800066690291022BA1EB0001019003920A9651
:103D90000B910AD1042305936B1E5A425A4101A983
:103DA000064803F063F90EB070BD042B01D108235F
:103DB000F1E7002BF0D00623EDE700BFC48B003401
:103DC000024600B101220821014802F0B1BA00BF49
:103DD0000000025600487047C48B0034034B022297
:103DE00018680023806819460FF026B814010034C3
:103DF00007B54FF6FF730190012201A9034807F0B0
:103E0000CCF8019803B05DF804FB00BF008B0034D0
:103E10001E491F4AD1F88C3010B543F44063C1F8F5
:103E20008C30536B23F0E05343F0805353630022F4
:103E3000184BC3F88022C3F88422C3F88822C3F841
:103E40008C22C3F89022C3F89422C3F8982201224E
:103E5000114B8B60114BC3F8782AD3F878028C6829
:103E60000F4803F5805304610069C3F87822D1F844
:103E700088300C4A43F47003C1F88830D2F8883097
:103E800043F47003C2F8883010BD00BF00ED00E0BD
:103E900000EF00E000E100E0000410700080025636
:103EA0000080005600ED02E07B4BF0B51A6A02F488
:103EB0004012B2F5001F00F0D18008D8002A39D096
:103EC000B2F5801F3CD00022744B1A60F0BDB2F5F1
:103ED000401FF8D1D3F8C42002F04052B2F1805F05
:103EE00036D0B2F1005F44D0002A52D1D3F88020FE
:103EF00012F0006402F0E04140F0B980D3F8840091
:103F0000D3F88830C2F30B2520F07F400C46B4F183
:103F1000005FC3F3C266C2F30551C3F3026300F04E
:103F2000948000F29D80002C47D0B4F1805F7CD05B
:103F3000002249E09B6C5A4AC3F3C113DA40C3E73D
:103F40005B6C584A13F4007F574B08BF1A46BBE717
:103F5000D3F8902012F0006402F0E04140F0878036
:103F6000D3F89400C2F30B25D3F8983020F07F40AB
:103F7000CCE7D3F8A02012F0006402F0E04176D143
:103F8000D3F8A400C2F30B25D3F8A83020F07F406B
:103F9000BCE7D3F8B02012F0006402F0E04166D133
:103FA000D3F8B400C2F30B25D3F8B83020F07F402B
:103FB000ACE70B460E4608460D46374A976C384A22
:103FC000C7F3C117FA403CBB07EE100AB8EEC76A48
:103FD00007EE105A07EE902ADFED346AB8EEC77A82
:103FE000F8EEE77AA6EE267A67EE877A07EE101AE1
:103FF000B8EEC77AC7EE876A07EE906AB8EEE77A3E
:1040000007EE903AF8EEE77A27EE277AC6EE877A3F
:10401000FCEEE77A17EE902A1F4BD3F8C430C3F3B7
:1040200007430133B2FBF3F24EE700241A4A1E4F56
:10403000526C12F4007F1B4A08BF3A46C3E70023C4
:104040001E4618461D461946F0E70024184ABAE7EE
:1040500000231E4618461D461946F7E7144A33E763
:10406000B4F1405F7FF464AF0024124AABE7B1F1D2
:10407000005FEDD006D800299BD0B1F1805FDED083
:104080000022C9E7B1F1405FFAD100231E4618466D
:104090001D461946E9E700BF00800256340000348F
:1040A0000090D0030024F40000093D00000080339C
:1040B000006CDC020080BB006DED81CF00B5FFF726
:1040C000F3FE054B5DF804EB18689FEC100A9FE8BF
:1040D0000E90FDEC81CF74473400003410B50320FE
:1040E00000F09AF8FFF7E0FE0F20FFF7D9FA044638
:1040F00018B9FFF74BF9204610BD0124FBE738B58E
:1041000004680546606810F009003FD1A8600120EE
:1041100028711220013BE060C4F804211A44C4F85D
:104120000821D4F8003123F006031943049BC4F896
:104130000011012BA3680AD143F01003A360D4F847
:10414000003143F00103C4F8003100201DE023F0EA
:104150001003A360D4F8003143F00103C4F8003128
:10416000FFF7A0FA04462B685B68DB06EDD4FFF787
:1041700099FA001BC828F6D92B685B68DA06F2D4D6
:104180001023AB60062301202B7138BD0220FCE711
:1041900038B50446E8B103685B68D90707D4002046
:1041A0002268A060136843F00103136038BDFFF775
:1041B00079FA054623685B68DB07F0D5FFF772FAEA
:1041C000401B0128F6D923685B68DA07F2D4102374
:1041D000A3600120EAE710B5044660B103790BB98A
:1041E000FFF744FA0023A360012323712046BDE8B2
:1041F0001040FFF7CDBF012010BD134607B540B1F9
:10420000002200920A460621FFF779FF03B05DF80D
:1042100004FB0120FAE7000007490302CA6803F41F
:10422000E06322F4E0621204120C134343F0BF6314
:1042300043F40033CB60704700ED00E070B5184CDC
:10424000E368C3F30223C3F10705042D03F1040659
:1042500028BF0425062E4FF0FF36A3F1030398BFB5
:10426000002306FA05F521EA05019E40002801FA1F
:1042700003F122EA0602B8BF00F00F0041EA020390
:10428000A8BF00F160404FEA0313B8BF0438DBB2A7
:10429000ABBF00F56140241880F80033237670BD71
:1042A00000ED00E0002807DB01234109034A00F08C
:1042B0001F00834042F82130704700BF00E100E05A
:1042C000F8B51446036871BBD3F8042422F4C01275
:1042D00042EAC442C3F80424234B022C1A6838D0A3
:1042E000032C39D0012C3AD142F040021A60FFF77A
:1042F000D9F94FF4003607461B4DA640FFF7D2F917
:10430000C01BB0F57A7F2DD8D5F8903036EA03037C
:10431000F4D14FF488530020D5F88020A3401343F4
:10432000C5F88030F8BD0129D3F8042806D122F45D
:10433000C01242EAC442C3F80428CDE7520341BF89
:10434000D3F8042C22F4C01242EAC442C3F8042C6D
:10435000C2E742F48062C9E742F48042C6E742F015
:104360000402C3E70120DDE700600058012930B5F1
:104370004FF00205046810D18571D4F800190B4381
:10438000C4F80039C4F8C429D4F8F03343F4060360
:1043900043F02003C4F8F03330BD08444571D4F82D
:1043A000001D0B43C4F8003DC4F8C42DD4F8F0330D
:1043B00043F00643ECE770B415461E4699B9022354
:1043C00001684371D1F800253243C1F80025C1F8D6
:1043D000C455D1F8F03370BC43F4064343F02003D6
:1043E000C1F8F033704770BCFFF7C0BF0223837180
:1043F0000368D3F8042842F00042C3F80428D3F835
:10440000002942F00802C3F80029704769B903681F
:10441000D3F8042442F00042C3F80424D3F8002562
:1044200042F00802C3F800257047012901D1FFF7C7
:10443000DDBF0368D3F8042C42F00042C3F8042C1B
:10444000D3F8002D42F00802C3F8002D7047000099
:10445000184B10B55A69C9B242F480325A611A69D0
:1044600042F001021A615A6942F480325A61002214
:104470001A615A615C695C611C6944F001041C6149
:104480001A615C6944F480345C611C6944F0010485
:104490001C615C69044344F480345C611A615A61B4
:1044A000586901435961196941F0010119611A61A3
:1044B00010BD00BF0070005810B5044668B1037904
:1044C0000BB908F059FB032300202371012360710D
:1044D000A071E071A060237110BD0120FCE7000015
:1044E0002DE9F0410446FEB00D464FF4FC726846DB
:1044F0003F490FF04AF91CB901207EB0BDE8F081B8
:10450000002DF9D03B4B1A6822F001021A6069684D
:1045100001291AD12A6842F404121A671A6842F073
:1045200001021A60D3F8802042F0B04242F4041233
:10453000C3F880202A68B2F5807FD3F8842054D154
:10454000012908D142F01F0207E00229D4D12A68CC
:1045500042F49012E1E742F4F8520026264CC3F8E8
:1045600084202368234F23F0020323607E602369A5
:10457000012043F001032361FFF796F82661D5F887
:104580000880A3685DF8382023F4FE4343EA022341
:1045900043F02803A360382108201602FFF758FFD4
:1045A0001121E420FFF754FF0DEBC803D3F804807A
:1045B000E3204FEA182146F48036FFF749FF46F022
:1045C0002806E3205FFA88F1FFF742FFA6602B6818
:1045D0000020B3F5807F0CBF07230F237B60236887
:1045E00043F002032360606087E742F4F852A9E7D2
:1045F000D0611170006000580070005830B558B19B
:1046000052B103791468013B012B3ED824F4803366
:10461000B3F5003F02D1F9B1012039E0022914BFFE
:10462000234600235568B4F5803F43EA0503056837
:1046300002D0B4F5003F04D102292AD0926843EA9F
:10464000022369B1012924D1D5F80418154A0A407A
:104650001A43C5F804280BE0B4F5403F2346E1D1E6
:104660000168104AD1F8044422401A43C1F80424D6
:104670000368D3F8042122F48042C3F80421D3F85C
:10468000042242F00102C3F8042202230371002035
:1046900030BDD5F8042C22F03F021343C5F8043C8A
:1046A000E6E700BFC0C0FCFFF0B1032908D8DFE88F
:1046B00001F002090F150D4B120242F001021A61BE
:1046C00000207047094B120242F001021A62F7E71C
:1046D000064B120242F001021A63F1E7034B120289
:1046E00042F001021A64EBE70120704700600058B5
:1046F0000346F0B5002861D0002A5FD0022902D11C
:10470000906806285AD85C1860791D79C0B2022DCD
:10471000EEB253D110F0FB0050D166711B681768E0
:1047200049B9D3F8002522F003023A43C3F8002523
:1047300001236371F0BD0129D2E9015626D1D3F8D6
:1047400000291F4922F003023A43C3F80029D3F895
:10475000C02922F00F023243C3F8C029D3F8CC2974
:104760000A402A43C3F8CC29F21F012A06D8D3F8FD
:10477000DC290A402A43C3F8DC29D9E7092ED7D11E
:10478000D3F8DC290A4042EA5502F4E7D3F8002DB9
:1047900022F003023A43C3F8002DD3F8C02D22F0D3
:1047A0000F023243C3F8C02DD3F8CC2D22F4FF42C0
:1047B00022F07F022A43C3F8CC2DB9E70120B9E7E4
:1047C0000080FFFFF8B50E461F46044610B90125CC
:1047D0002846F8BD1D07FAD103684518D3F80432FE
:1047E0006D79012DF3D1DB07F1D5FFF769FD0546A2
:1047F0000028ECD1314620463A46069BFFF7DBFD08
:1048000031462046FFF702FEE2E7704770477047E7
:104810007047036870B5D3F8F86304467204D3F8A0
:10482000F05312D5690410D5D3F8F023002122F4F7
:104830008042C3F8F023826842F0040282604FF4A1
:104840008042C3F8FC23FFF7E1FF72050AD56B0530
:1048500008D54FF48062236800212046C3F8FC236A
:1048600008F06AF9B00516D5A90514D52368D3F860
:104870000025520707D5D3F8F02322F40642C3F8E7
:10488000F023012262714FF4007200212046C3F828
:10489000FC2308F061F9F3050AD5E80508D54FF4C3
:1048A0008072236800212046C3F8FC23FFF7ADFF88
:1048B000310416D52A0414D523680021D3F8F02337
:1048C000204622F40042C3F8F023A26842F0080216
:1048D000A2604FF40042C3F8FC2304236371FFF786
:1048E00096FFF3030AD5E80308D54FF48032236816
:1048F00001212046C3F8FC23FFF787FF71030AD587
:104900006A0308D54FF48022236801212046C3F8AA
:10491000FC2308F011F9B30316D5A80314D52368B6
:10492000D3F80029510707D5D3F8F02322F4060263
:10493000C3F8F0230122A2714FF400320121204676
:10494000C3F8FC2308F008F9320216D52B0214D55F
:1049500023680121D3F8F023204622F40002C3F893
:10496000F023A26842F01002A2604FF40002C3F8E4
:10497000FC230423A371FFF74AFFF0010AD5E901E4
:1049800008D54FF08072236802212046C3F8FC232B
:10499000FFF73BFF72010AD56B0108D54FF080622B
:1049A000236802212046C3F8FC2308F0C5F8B001B3
:1049B00016D5A90114D52368D3F8002D520707D5C1
:1049C000D3F8F02322F00642C3F8F0230122E2716B
:1049D0004FF0007202212046C3F8FC2308F0BCF817
:1049E000002E16DA002D14DA23680221D3F8F02302
:1049F000204622F00042C3F8F023A26842F02002D1
:104A0000A2604FF00042C3F8FC230423E371FFF7D8
:104A1000FEFE700614D5690612D523682046D3F829
:104A2000F02322F04002C3F8F023A26842F0020211
:104A3000A2604022C3F8FC2304232371FFF7E8FEA1
:104A4000B20614D5AB0612D523682046D3F8F0235E
:104A500022F02002C3F8F023A26842F00102A26013
:104A60002022C3F8FC2304232371FFF7D1FE70BD7D
:104A70007047704770477047704770477047000035
:104A8000B54B2DE9F041D3F890600446B202D3F85B
:104A90009480D3F88050D3F884700DD5A9020BD53B
:104AA000D3F8802022F40012C3F880204FF40012C3
:104AB000C3F80021FFF7DDFF320715D52B0713D50B
:104AC00023680321D3F80035204613F0040FA24BCE
:104AD0001EBFD3F8802022F00802C3F880200822ED
:104AE000C3F80021FFF7CAFF700715D5690713D572
:104AF00023680221D3F80035204613F0040F964BAB
:104B00001EBFD3F8802022F00402C3F880200422C4
:104B1000C3F80021FFF7B2FFB20715D5AB0713D5D5
:104B200023680121D3F80035204613F0040F8A4B87
:104B30001EBFD3F8802022F00202C3F88020022298
:104B4000C3F80021FFF79AFFF00715D5E90713D541
:104B500023680021D3F80035204613F0040F7E4B64
:104B60001EBFD3F8802022F00102C3F8802001226A
:104B7000C3F80021FFF782FF320416D52B0414D5A9
:104B800023680321D3F80035204613F0040F724B3D
:104B90001EBFD3F8802022F40042C3F880204FF4D7
:104BA0000042C3F80021FFF766FF700416D56904C0
:104BB00014D523680221D3F80035204613F0040FE2
:104BC000654B1EBFD3F8802022F48042C3F88020BA
:104BD0004FF48042C3F80021FFF74DFFB20416D511
:104BE000AB0414D523680121D3F80035204613F017
:104BF000040F594B1EBFD3F8802022F40052C3F893
:104C000080204FF40052C3F80021FFF734FFF00476
:104C100016D5E90414D523680021D3F800352046C1
:104C200013F0040F4C4B1EBFD3F8802022F48052A7
:104C3000C3F880204FF48052C3F80021FFF71BFF18
:104C4000320516D52B0514D523680321D3F800357A
:104C5000204613F0040F404B1EBFD3F8802022F4EF
:104C60000062C3F880204FF40062C3F80021FFF710
:104C700003FF700516D5690514D523680221D3F802
:104C80000035204613F0040F334B1EBFD3F88020AD
:104C900022F48062C3F880204FF48062C3F80021C0
:104CA000FFF7EAFEB20516D5AB0514D5236801213E
:104CB000D3F80035204613F0040F274B1EBFD3F85E
:104CC000802022F40072C3F880204FF40072C3F8F1
:104CD0000021FFF7D1FEF00516D5E90514D52368AC
:104CE0000021D3F80035204613F0040F1A4B1EBFE5
:104CF000D3F8802022F48072C3F880204FF48072B1
:104D0000C3F80021FFF7B8FE320615D52B0613D5E0
:104D100023680321D3F80035204613F0040F0E4B0F
:104D20001EBFD3F8802022F08002C3F880208022AA
:104D3000C3F80021FFF7A1FE700619D5690617D543
:104D400023680221D3F80035204613F0040F024BEC
:104D500018BFD3F8802001E0006000581CBF22F08B
:104D60004002C3F880204022C3F80021FFF785FEEF
:104D7000B20615D5AB0613D523680121D3F800354B
:104D8000204613F0040FB94B1EBFD3F8802022F049
:104D90002002C3F880202022C3F80021FFF76DFE17
:104DA000F00615D5E90613D523680021D3F80035A0
:104DB000204613F0040FAD4B1EBFD3F8802022F025
:104DC0001002C3F880201022C3F80021FFF755FE1F
:104DD000720013D56B0011D5A44B2046D3F8802068
:104DE00022F08042C3F880204FF08042C3F80021B7
:104DF000A36843F48073A360FFF70AFDB00013D5E6
:104E0000A90011D5994B2046D3F8802022F00052FA
:104E1000C3F880204FF00052C3F80021A36843F488
:104E20000073A360FFF7F4FCF20013D5EB0011D57B
:104E30008E4B2046D3F8802022F08052C3F8802089
:104E40004FF08052C3F80021A36843F48063A3604D
:104E5000FFF7DEFC300113D5290111D5834B204625
:104E6000D3F8802022F00062C3F880204FF0006267
:104E7000C3F80021A36843F40063A360FFF7C8FCF4
:104E8000720113D56B0111D5784B2046D3F88020E1
:104E900022F08062C3F880204FF08062C3F80021C6
:104EA000A36843F48053A360FFF7B2FCB00113D5AD
:104EB000A90111D56D4B2046D3F8802022F0007255
:104EC000C3F880204FF00072C3F80021A36843F4B8
:104ED0000053A360FFF79CFCF20113D5EB0111D541
:104EE000624B2046D3F8802022F08072C3F88020E5
:104EF0004FF08072C3F80021A36843F48043A3609D
:104F0000FFF786FC18F0010F14D0F80712D5012125
:104F1000564B2046D3F8802022F00102C3F88020AF
:104F2000C3F80411A36843F40023A360042323718E
:104F3000FFF79EFD18F0020F15D0B90713D54B4BA4
:104F40000121D3F88020204622F00202C3F88020FD
:104F50000222C3F80421A36843F48023A36004233E
:104F60002371FFF785FD18F0040F13D07A0711D5D0
:104F70003E4B0121D3F88020204622F00402C3F8E2
:104F800080200422C3F80421A36843F40033A36003
:104F9000FFF76EFD18F0080F13D03B0711D5334B08
:104FA0000121D3F88020204622F00802C3F8802097
:104FB0000822C3F80421A36843F48033A360FFF7F9
:104FC00057FD18F0100F13D0F80611D5274B01210B
:104FD000D3F88020204622F01002C3F8802010224F
:104FE000C3F80421A36843F40043A360FFF740FD26
:104FF00018F4807F16D0F90514D51C4B0221D3F884
:105000008020204622F48072C3F880204FF4807202
:10501000C3F80421A36843F40023A360042323718D
:10502000FFF726FD18F4007F16D0BA0514D50F4BF4
:105030000221D3F88020204622F40072C3F8802099
:105040004FF40072C3F80421A36843F48023A360E3
:1050500004232371FFF70CFD18F4806F17D07B0534
:1050600015D5024B0221D3F8802001E000600058E2
:10507000204622F48062C3F880204FF48062C3F897
:105080000421A36843F40033A360FFF7F1FC18F494
:10509000006F14D0380512D51F4B0221D3F88020A1
:1050A000204622F40062C3F880204FF40062C3F867
:1050B0000421A36843F48033A360FFF7D9FC18F4FC
:1050C000805F14D0F90412D5134B0221D3F880204D
:1050D000204622F48052C3F880204FF48052C3F857
:1050E0000421A36843F40043A360FFF7C1FCF2036B
:1050F0000FD5EB030DD5084B2046D3F8802022F4C2
:105100008032C3F880204FF48032C3F80021FFF7CB
:10511000B1FCBDE8F08100BF0060005810B5002868
:105120005BD0002A59D00379022B56D109BB016804
:105130002B4BD1F804010340B3F5804F4DD0D2E999
:105140000043D1F8040543EA044300F0F020034390
:10515000C1F80435D2E9033492682343D1F8080535
:1051600043EA02431F4A02401343C1F808350020B6
:1051700010BD012917D1D2E90043016843EA044375
:10518000D1F8040900F0F0200343C1F80439D1F844
:105190000809D2E9024300F0F02243EA0443134332
:1051A000C1F80839E3E7022917D1D2E900430168C1
:1051B00043EA0443D1F8040D00F0F0200343C1F8A2
:1051C000043DD1F8080DD2E9024300F0F02243EA91
:1051D00004431343C1F8083DC9E70120C8E700BFF5
:1051E0000040FF0000F000B068B30379022B2AD121
:1051F00079B90368154AD3F804110A40B2F5804F13
:1052000021D0D3F8082542F00042C3F80825002039
:10521000704701290DD103680846D3F82028B2F55C
:10522000004F11D0D3F8082942F00042C3F80829F2
:10523000EDE7022907D10268D2F8083D43F00043A8
:10524000C2F8083DE3E70120704700BF0040FF00BF
:10525000E8B141B90268D2F8083523F00043C2F83A
:10526000083500207047012907D10268D2F80839B3
:1052700023F00043C2F80839F3E7022907D1026896
:10528000D2F8083D23F00043C2F8083DE9E70120C9
:10529000704790B18AB10379022B0ED101290CD14C
:1052A000D2E9003200681343D0F8301821F01E0212
:1052B0001343C0F83038002070470120704750B1C8
:1052C000012908D102680020D2F8303843F00103E8
:1052D000C2F83038704701207047F8B10379022BCB
:1052E0001CD101290CD1D2E9003200681343D0F857
:1052F0000C1921F01E021343C0F80C39002070472E
:1053000002290BD1D2E9003200681343D0F80C1DFA
:1053100021F01E021343C0F80C3DEFE70120704757
:10532000A0B1012908D10268D2F80C3943F0010379
:10533000C2F80C3900207047022907D10268D2F860
:105340000C3D43F00103C2F80C3DF3E70120704728
:10535000A0B1012908D10268D2F80C3923F0010369
:10536000C2F80C3900207047022907D10268D2F830
:105370000C3D23F00103C2F80C3DF3E70120704718
:1053800010B5002845D0002A43D00379022B40D124
:1053900001291ED1D2E90441036841EA0441D3F84E
:1053A000100900F0FC200143C3F81019D2E90201F2
:1053B00041EA0041C3F81419D3F81819D2E90002E0
:1053C00001F0F02142EA00420A43C3F81829002004
:1053D00010BD02291DD1D2E90441036841EA04410C
:1053E000D3F8100D00F0FC200143C3F8101DD2E9E2
:1053F000020141EA0041C3F8141DD3F8181DD2E997
:10540000000201F0F02142EA00420A43C3F8182DDD
:10541000DDE70120DCE7A0B1012908D10268D2F85C
:10542000103943F00043C2F81039002070470229B8
:1054300007D10268D2F8103D43F00043C2F8103D96
:10544000F3E701207047A0B1012908D10268D2F822
:10545000703943F00103C2F8703900207047022907
:1054600007D10268D2F8703D43F00103C2F8703DE5
:10547000F3E701207047A0B1012908D10268D2F8F2
:10548000703923F00103C2F87039002070470229F7
:1054900007D10268D2F8703D23F00103C2F8703DD5
:1054A000F3E701207047012905D10368D3F870099B
:1054B00000F001007047022903D10368D3F8700D92
:1054C000F6E700207047000010B5C8B1C2B101294D
:1054D00016D1D2E903431B0743EA044394680168E9
:1054E00023431468526843EA0453D1F8700843EA2E
:1054F0000263044A024000201343C1F8703810BD13
:105500000120FCE7F9FF888850B1012908D1026821
:105510000020D2F8703843F00103C2F870387047A9
:105520000120704750B1012908D102680020D2F84B
:10553000703823F00103C2F87038704701207047BB
:1055400078B101290DD1006843EA0233D0F8201860
:1055500021F4FF4222F07F021343C0F820380020DC
:1055600070470120704750B1012908D1026800201E
:10557000D2F8203843F40043C2F8203870470120A5
:10558000704750B1012908D102680020D2F82038B4
:1055900023F40043C2F8203870470120704760B1FF
:1055A00001290AD101680020D1F8243823F00E0324
:1055B00043EA4202C1F8242870470120704750B1E5
:1055C000012908D102680020D2F8243843F00103F1
:1055D000C2F8243870470120704750B1012908D122
:1055E00002680020D2F8243823F00103C2F82438DE
:1055F0007047012070470368D3F82408C0F34200C5
:105600007047012903BF0368D3F8240800F00100A4
:105610000020704758B152B10379022B07D10368BB
:105620000020D3F82838C3F30B0313607047012020
:105630007047000070B5002800F0A880002A00F034
:10564000A580012940F0A28003681478D3F880086F
:10565000517820F0060041EA84010143C3F8801824
:10566000B2F902108CB2C1F30A000029B2F9041099
:10567000B8BF0446C1F30A05002988B2B8BF28465E
:10568000D3F8841801F0F821214341EA0041C3F81E
:105690008418B2F906108DB2C1F30A000029B2F9DC
:1056A0000810B8BF0546C1F3090000298CB2B8BF85
:1056B0000446D3F8881836480140294341EA04419A
:1056C000C3F88818B2F90C108DB2C1F30A0400298E
:1056D000B2F90A10B8BF2546C1F30A0600298CB2F8
:1056E000B8BF3446D3F88C1801F0F82141EA0541DF
:1056F0002143C3F88C18B2F90E108DB2C1F30A041D
:105700000029B2F91010B8BF2546C1F309060029D7
:105710008CB2B8BF3446D3F890180140294341EA0F
:105720000441C3F89018B2F912108DB2C1F30A0403
:105730000029B2F91410B8BF2546C1F30A060029A2
:105740008CB2B8BF3446D3F8941801F0F82129433D
:1057500041EA0441C3F89418B2F91610B2F91820BE
:10576000C1F30A0500298CB2B8BF2C46C2F3090563
:10577000002A91B2D3F89828B8BF294602400020E9
:10578000224342EA0142C3F8982870BD0120FCE799
:1057900000F800FC50B1012908D102680020D2F8BD
:1057A000803843F00103C2F8803870470120704709
:1057B00050B1012908D102680020D2F8803823F0C6
:1057C0000103C2F8803870470120704710B598B1C6
:1057D00092B1012910D1006853781478D0F840189C
:1057E00092781B0443EA046343EA0223CAB21343D8
:1057F000C0F84038002010BD0120FCE750B101295D
:1058000008D102680020D2F8403843F00103C2F802
:10581000403870470120704750B1012908D1026813
:105820000020D2F8403823F00103C2F84038704716
:105830000120704710B530B32BB3012923D1D3E930
:1058400000149B682143012A43EA0103016809D03F
:10585000022A10D0D1F8582822F0FC021343C1F8D4
:10586000583806E0D1F8502822F0FC021343C1F862
:105870005038002010BDD1F8542822F0FC02134308
:10588000C1F85438F5E70120F4E710B5D8B1D2B12A
:10589000012918D1D2E90043016843EA0443D1F851
:1058A0005C0800F0F0200343C1F85C38D1F86008D0
:1058B000D2E9024300F0F022002043EA04431343FC
:1058C000C1F8603810BD0120FCE7E0B101291AD110
:1058D000012A036808D0022A0ED0D3F8582842F0D3
:1058E0000102C3F8582805E0D3F8502842F001021D
:1058F000C3F8502800207047D3F8542842F0010222
:10590000C3F85428F6E70120704750B1012908D1A7
:1059100002680020D2F8603843F00043C2F86038D3
:1059200070470120704710B500B3FAB101291DD1AD
:1059300000685378D0F8441814781B0521F0FF4113
:1059400021F4E00143EA04730B43C0F84438D378F0
:1059500091781B0543EA01731179527943EA0133C7
:1059600043EA0213C0F84838002010BD0120FCE7CC
:1059700050B1012908D102680020D2F8443843F020
:105980000103C2F8443870470120704750B1012923
:1059900008D102680020D2F8443823F00103C2F88D
:1059A000443870470120704740B33AB3012925D1EC
:1059B00001681078D1F8A03823F4FC4343EA40236F
:1059C000C1F8A038937850785B0443EA4063D078FC
:1059D00043EA4023107943EA4003C1F8A43893799D
:1059E00050795B0443EA4063D079127A43EA40235A
:1059F00043EA42030020C1F8A838704701207047ED
:105A000050B1012908D102680020D2F8A03843F033
:105A10000103C2F8A03870470120704750B1012936
:105A200008D102680020D2F8A03823F00103C2F8A0
:105A3000A038704701207047D0B101290BD101680F
:105A4000D1F8CC3923F4FF4323F07F031343C1F88B
:105A5000CC390020704702290AD10168D1F8CC3D29
:105A600023F4FF4323F07F031343C1F8CC3DF0E759
:105A700001207047B0B1012909D10168D1F8C039BE
:105A800023F00F031A43C1F8C029002070470229F0
:105A900008D10168D1F8C03D23F00F031A43C1F8C3
:105AA000C02DF2E70120704708B361B901681AB947
:105AB000C1F8C43500207047D1F8C025D20316D5EF
:105AC000C1F8C835F6E7012907D1016812B9C1F854
:105AD000C439EFE7C1F8C839ECE7022907D10168FA
:105AE00012B9C1F8C43DE5E7C1F8C83DE2E70120BD
:105AF0007047B8B10379022B08D1012908D1026897
:105B0000D2F8C03943F01003C2F8C0390020704702
:105B1000022907D10268D2F8C03D43F01003C2F851
:105B2000C03DF3E701207047B8B10379022B08D1DB
:105B3000012908D10268D2F8C03923F01003C2F855
:105B4000C03900207047022907D10268D2F8C03D51
:105B500023F01003C2F8C03DF3E70120704702298B
:105B60000ED10368D3F8042CD3F804180A4307D4E1
:105B7000D3F80428002022F48022C3F804287047B8
:105B800001207047C8B1C3B1012916D1022A0CD037
:105B9000032A0ED0012A01D0002070470268D2F8F3
:105BA000642822F07F421A60F6E70268D2F868287B
:105BB000F7E70268D2F86C28F3E70120704700008D
:105BC000012970B540F08D800368D3F88018C1F3C7
:105BD000800001F0020110705170D3F884484149EF
:105BE000C4F30A4040EA010514F0806F18BF28464C
:105BF000D3F884489080C4F30A0040EA010514F405
:105C0000806F18BF2846D3F8885850803648C5F3AF
:105C1000094444EA000615F0007F18BF3446D3F863
:105C200088581481C5F30A0444EA010615F4806F0C
:105C300018BF3446D3F88C58D480C5F30A4444EADC
:105C4000010615F0806F18BF3446D3F88C58948144
:105C5000C5F30A0444EA010615F4806F18BF344600
:105C6000D3F890585481C5F3094444EA000615F06E
:105C7000007F18BF3446D3F890581482C5F30A0445
:105C800044EA010615F4806F18BF3446D3F89858DB
:105C9000D481C5F30944204315F0007F18BF0446A2
:105CA0001483D3F89848C4F30A0040EA010514F4B9
:105CB000806F18BF2846D3F89448D082C4F30A40B6
:105CC00040EA010514F0806F18BF28469082D3F88F
:105CD0009408C0F30A03194310F4806F18BF0B46F1
:105CE000538270BD00F8FFFF00FCFFFF012903BFD6
:105CF0000368D3F8800800F00100002070470079A5
:105D00007047F0B50468059D666C45EA0345436835
:105D100006F040463543B3F5403F6564E2632ED15B
:105D2000806818B1012803D121F07F41A163F0BD43
:105D3000022801F47F0301F47F45CEB207D1DB0CCA
:105D4000AD0ADB0243EA451343EAD601EEE7DA0C7B
:105D5000EF0A92021B0D42EA47122D0B1B02CF0FD6
:105D600042EAD60243EA051342EAC73243EA16136F
:105D7000090F032843EA013108BF1146D6E7B3F5FE
:105D8000802F0CBF6161E160D1E710B504460028A7
:105D900036D090F8613003F0FF021BB980F8602024
:105DA000FDF70AFB022384F861302368E069196873
:105DB000626821F4E021024321F040010A431A60A5
:105DC000596BA069A26821F48371024321F001019B
:105DD0000A435A631A6CE168120C12040A431A64EB
:105DE000596BD4E90402520542EA005221F44011F1
:105DF0000A435A6300200123606684F8613010BDB5
:105E00000120FCE773B590F860500446012D4FF077
:105E100002050FD0012680F86150069D80F8606071
:105E20000095FFF76EFF002022681368334313606C
:105E300002B070BD2846FBE7002373B501930368E9
:105E400004461B680D46DB0718D42268D369526AE2
:105E500013439E0606D5FDF725FC064623685A68BF
:105E6000D2063FD51222236800209A60012384F8CD
:105E70006130002384F8603002B070BDFDF712FC81
:105E8000064623685A689207DFD45A680192019A3D
:105E900012F0210F14D0019A950642BF626E42F0B3
:105EA00002026266019AD00742BF626E42F00102AE
:105EB000626621229A600423012084F86130D8E7C9
:105EC000691CDFD0FDF7EEFB801BA84201D8002D36
:105ED000D7D1636E032043F020036366032384F865
:105EE0006130C6E75A680192019A12F0290F16D064
:105EF000019A160742BF626E42F004026266019A7E
:105F0000950642BF626E42F002026266019AD007B5
:105F100042BF626E42F0010262662922CAE7691C32
:105F20009DD0FDF7BFFB801BA842D2D8002D95D194
:105F3000CFE70000F0B590F860300246012B4FF03B
:105F4000020033D01C24012304FB012482F86030BA
:105F500082F86100A36BD4E90B601B05676B43EA11
:105F60000043E06B334343EA4053A6F1090507F0D1
:105F70007F401843012D43EA076398BF034610682A
:105F8000A9B9446A1749012D01EA040141EA030154
:105F9000936A4162836103D8536B23F07F4383622A
:105FA0000123002082F8613082F86000F0BD0B2EE2
:105FB00003BF246C0C4E43EA84430C4EC469012D8C
:105FC00024EA060443EA0403C3614FF01C0303FB05
:105FD00001218B6A03619EBF4B6B23F07F430362F9
:105FE000DEE700BFF0FFCC000F003FFF0F0033FFE4
:105FF0002DE9F04F00224FF00F0A734C0B6833FA73
:1060000002F501D1BDE8F08F012505FA02F919EA80
:10601000030300F0C18003274E684FEA420806F0F0
:10602000030507FA08FE6F1E012F6FEA0E0ED1F866
:1060300008C031D8876807EA0E0BCF6807FA08F75F
:1060400047EA0B078760476827EA0909C6F3001784
:10605000974047EA09074760C7680CFA08FC07EA57
:106060000E074CEA0707022DC7601AD14FEAD20C7F
:1060700000EB8C0C02F00709DCF820704FEA89096C
:106080000AFA09FB27EA0B0B0F6907FA09F747EA37
:106090000B07CCF8207004E0032DDDD1BCF1010F1B
:1060A000DAD1076805FA08F507EA0E073D4316F44A
:1060B000403F056070D022F0030707F1AC4707F5B9
